:020000040800F2
:10000000C8AC0020FD4B000855010008570100084E
:10001000590100085B0100085D01000800000000B4
:100020000000000000000000000000005F01000868
:10003000610100080000000063010008650100087C
:10004000174C0008174C0008174C0008174C000804
:10005000174C0008174C0008174C0008174C0008F4
:10006000174C0008174C0008174C0008174C0008E4
:10007000174C0008174C0008174C0008174C0008D4
:10008000174C0008174C0008174C0008174C0008C4
:10009000174C0008174C0008174C0008174C0008B4
:1000A000174C0008174C0008174C0008174C0008A4
:1000B00073010008174C0008174C0008174C000883
:1000C000174C0008174C0008174C0008174C000884
:1000D000174C0008174C0008174C0008174C000874
:1000E000174C0008174C0008174C0008174C000864
:1000F000174C0008174C0008174C0008174C000854
:10010000174C0008174C0008174C0008174C000843
:10011000174C0008174C0008174C0008174C000833
:10012000174C0008174C0008174C0008174C000823
:10013000DFF810D00CF002F8004800474901000831
:10014000AFF30080C8AC002000F012F900F021F9F4
:10015000FCE700007047FEE7FEE7FEE7FEE77047BA
:100160007047704710B509F09BFCBDE8104000F0E7
:1001700013B9014807F0DCB890A70020644808B51F
:10018000816941F001018161806900F00100009006
:1001900003200AF03DFF00221146501E0AF045FFE1
:1001A0005C48416821F0E06141F00071416008BDA8
:1001B00030B585B000240094019402940394564D08
:1001C0000368534802210322AB421AD1836943F4E6
:1001D00080538361836903F480530493836943F0FC
:1001E0000403836180694D4D00F004000490A02059
:1001F000CDE900010392694628460AF05BF84020E9
:100200001CE0474DAB4220D1C36943F40043C361B6
:10021000C36903F400430493836943F008038361D3
:100220008069404D00F0080004902820CDE90001CD
:100230000392694628460AF03DF81020CDE90004F3
:100240006946284602940AF035F805B030BD324AB6
:1002500001682F48914206D1816921F48051816162
:10026000E0212E4808E02E4A914207D1C16921F4CD
:100270000041C16138212B480AF003B9704730B5FD
:1002800085B00024009401940294039400682649E8
:100290008842DAD11E48C16941F48021C161C06938
:1002A000204D00F4802004904FF4806000900220E4
:1002B0000190032003906946284609F0FBFFE814EB
:1002C000CDE9000469462846029409F0F3FFBCE733
:1002D00070B50546006814490D4C4FF440668842DD
:1002E00007D1E06920F48020E06131460D480AF032
:1002F000C8F80E492868884209D1E06920F4002036
:10030000E0613146BDE8704009480AF0BAB870BDF6
:100310000010024000000140003001400008014090
:10032000003C0040000C014000480040004C0040F0
:100330000010014070B590B0012502264FF4A020B6
:10034000002407960095CDE901042804CDE90804AE
:10035000684609F08CFC0A95CDE90B640D940021E8
:100360000AA80E9409F045FE09F0F0FE10B070BD29
:1003700010B509F077FBFFF7DDFF194800F041F8F1
:1003800000F005FF00F0F6FFBDE8104015A00BF0EF
:1003900013BF002000F0D5BD00F0B7BD10B5A8B068
:1003A0004AF65520ADF800009720ADF80200042071
:1003B0008DF804006C46FF229621601D0BF092FB25
:1003C0009721601D00F0E7FF28B0002010BD00B5A8
:1003D00095B000F0C6FF684600F046FB15B000BDC2
:1003E000000000207379737465726D20696E697402
:1003F00020697320636F6D706C657465210A00005D
:10040000704710B5044636480C22E11C0369354894
:100410009847E178E01C00F0E1FDD4F80B10884229
:100420001DD1A1796079C943C9B2884200D1207039
:10043000A17A607AC943C9B2884200D1A070A17A7A
:10044000607AC943C9B2884200D1A070217AE079AC
:10045000C943C9B2884200D16070002010BD01209C
:1004600020700220A070F7E72DE9F0411C4E0D46E8
:100470000C221C4F0446C11C33693846984708219A
:10048000E1704FF0F7022000227104D0012804D05F
:10049000022C05D103E0257002E0657000E0A57034
:1004A00020786071C043A071A0786072C043A072D0
:1004B0006078E071C0432072E01C00F08FFDC4F84A
:1004C0000B000C22E11C3846F368BDE8F0411847E8
:1004D00070477047704704A00BF06EBE7047000075
:1004E000B4CA000800F8010863616E206572726F7B
:1004F000720A0000C0F30721030EC0F3074209048B
:1005000003EB006001EB022108447047F0B5BFB077
:1005100015460E4600236C460AE0C15C0A0904F841
:10052000132004EB430201F00F015B1C5170DBB29E
:10053000AB42F2D3002706E0E25DF019D4A10BF044
:100540004BFE7F1CFFB2B7EB450FF5D33FB0F0BDBC
:1005500070B5002526E0435D4419A3F14106647897
:10056000052E01D8373B06E0A3F16106052E01D820
:10057000573B00E0303BA4F14106DBB2052E01D829
:10058000373C06E0A4F16106052E01D8573C00E097
:10059000303CE4B244EA031305EBD57401EB640488
:1005A000AD1C23709542D6DB70BD2DE9F04F0024C1
:1005B000DFF8E0A289B08046A1464FF4FA7B00BF85
:1005C00004EB840108EB8105D5E901329A4202DD92
:1005D000D61A002701E09E1A01274FF47A70704363
:1005E000142190FBF1F1E960514501DDC5F80CA043
:1005F000A9A0E9680BF0E0FDED68CDE906B9CDF8FA
:1006000014B0CDF82090CDE9036948464FF47A72D2
:100610008DE82500002221463B46104601F019FDD9
:10062000641CE4B2042CCBD309B0BDE8F08F2DE9F3
:10063000F0410446A0B00026A4A00BF0BDFD217837
:10064000601C00F078FDA5A00BF0B6FD0322A449C4
:10065000601C0BF07EFA68B9A2A00BF0ADFD00F0B3
:1006600044FA1221A3A00BF0A7FD9D4812211830D7
:1006700000F0A2F99A4912222A31601C0BF069FAA3
:1006800068B9A4A00BF098FD00F002FB1221A5A010
:100690000BF092FD924812213C3000F08DF9904908
:1006A00006220831601C0BF054FA60BBA4A00BF0CA
:1006B00083FDD4F815000390D4F819000490D4F801
:1006C0001D0005900BA800F0CFF950220BA9A248FD
:1006D0000BF0F6F9A04F00250DF10C0805EB850194
:1006E00007EB810C58F82500CCF80800FFF702FF53
:1006F0006D1CEDB2CCF80800042DEFD3F8697864D6
:100700009548FFF752FF764908221031601C0BF024
:1007100020FA6078724DAA2879D1A0784FF00108AC
:10072000FF284AD00027002300961A46394618466B
:10073000019601F052F97F1CFFB2042FF3D300277A
:100740004646012300961A4639460020019601F0DC
:1007500044F97F1CFFB2042FF3D380A00BF02CFDD3
:10076000A178642031B1012908D0022913D00329CE
:100770004DD10AE06A688DE8450004E06A683146B8
:10078000CDE900020296E27810E06868029642081D
:10079000CDE90020F7E7E07801280CD05FF00102F6
:1007A00068684FF47A73CDE900300296002318464A
:1007B00001F001FB2BE00022F2E76EA00BF0FCFC45
:1007C0000027002300961A4639461846019601F084
:1007D00004F97F1CFFB2042FF3D300264746012300
:1007E00000971A4631460020019701F0F6F8761C72
:1007F000F6B2042EF3D3E078FF2808D10026314664
:10080000002001F01CF9761CF6B2042EF7D36078B4
:10081000A02815D1A07840B969685CA064316960EE
:100820000BF0CAFC6078A0280AD1A078012807D173
:10083000686808B164386860014659A00BF0BCFCD8
:1008400020B0BDE8F0815B4800F000BC014659488B
:1008500000F005BC70B5574D284600F0FBFB0028A2
:1008600014D00024C92104FB01F0295C59B14619B8
:10087000701C0A2100F05FFC3046FFF7D8FE002113
:10088000284600F028FC641C202CEBDB70BD000027
:1008900025580000A08601007370656564203D2026
:1008A00025642C207461676574506F736974696F77
:1008B0006E203D202564202C20706F736974696F51
:1008C0006E203D202564200D0A0000007564702014
:1008D0007265632064617461203D20000D0A000090
:1008E00004010020B5E7BBFAB8B4CEBBD6B8C1EE60
:1008F000200D0A006D6F746F725F72657365745FAF
:1009000061636B5F636D64203D202564200D0A20C8
:1009100000000000B5E7BBFABCB1CDA3D6B8C1EE6C
:10092000200D0A006D6F746F725F73746F705F617A
:10093000636B5F636D64203D202564200D0A2000F9
:10094000B5E7BBFA33D6E1B5E7BBFAD4CBD0D0D606
:10095000B8C1EE200D0A0000009F0020B5A5B5E744
:10096000BBFAB5E7BBFAB2E2CAD4D6B8C1EE200DE5
:100970000A000000B6E0B5E7BBFACDB3D2BBB2E2E5
:10098000CAD4D6B8C1EE200D0A000000B5E7BBFA04
:10099000BCD3CBD9CBD9B6C8203D202564200A00D2
:1009A000B5E7BBFABCF5CBD9CBD9B6C8203D2025DD
:1009B00064200A00F401002008B5284A284B128858
:1009C00000920A460146022003F039FA08BDAFF34F
:1009D000008010B5ADF5347D4FF4007101A80BF027
:1009E00088F8022003F07EFD78B322282AD1022065
:1009F00003F06CFD400703D50421022003F06CFDD9
:100A0000022003F09BFD04001CD014480090144BFE
:100A1000224601A9022003F082FA083C8DF8044224
:100A2000224601A90DF205200BF04AF881A8FFF734
:100A30000DFF42F228300090A2B2094B01A902201A
:100A400003F0FDF90DF5347D10BDFFE705480221E7
:100A500000230288084603F0A3F8F3E7D80100203A
:100A6000D4010020D20100202DE9F04399B0814645
:100A7000002503AE0DF15C0805EB850706EB870446
:100A8000611CCDE90018221D23462946002000F0F4
:100A9000C6FE607816F827100091CDE901502B466C
:100AA000294680A062680BF087FB6078042810D18B
:100AB00000200090034602462946019000F08DFF79
:100AC000012000900346024601902946002000F0D4
:100AD00084FF6D1CEDB2042DCED3502203A94846ED
:100AE0000AF0EEFF19B0BDE8F083F0B5ABB07CA022
:100AF0000BF062FB00252C46002300941A46294681
:100B00001846019400F069FF6D1C042DF4DB0025EC
:100B1000002300941A4629461846019400F05DFF10
:100B20006D1C042DF4DB00260125012300951A46D7
:100B300031460020019500F050FF761C042EF4DBB6
:100B400000260094019401230322314600200294E0
:100B500002F06FFE761C042EF3DB002600940123C6
:100B6000032231460020CDE9014502F062FE761CE9
:100B7000042EF3DB17A8FFF777FF502217A903A86D
:100B80000AF09EFF9DF8350047F230564FF47A7711
:100B900004280DD140F6B831CDE9001600231A46DD
:100BA00002940221184601F006F9384608F095FF34
:100BB00000231A4602211846009600F070FF002319
:100BC000012219461846009600F069FF0023012211
:100BD00011461846009600F062FF0023012203210F
:100BE0001846009600F05BFF17A8FFF73DFF502264
:100BF00017A903A80AF064FF9DF80D0004283FD050
:100C00005FF000009DF8211004293BD0002108402E
:100C10009DF83510082937D0002108409DF849106B
:100C2000042933D000210842DED017A8FFF71CFFAB
:100C30000026002300941A4631461846019400F01D
:100C4000CCFE761C042EF4DB0024012300951A460A
:100C500021460020019500F0C0FE641C042CF4DB4A
:100C600017A8FFF701FF502217A903A80AF028FFD1
:100C7000384608F032FF20A00BF09EFA2BB0F0BDF2
:100C80000120BFE70121C2E70121C6E70121CAE730
:100C900010B500242146002000F0D1FE641C042C75
:100CA000F8DB10BD706F7374696F6E5B25645D2037
:100CB0003D2025642C2072756E5F73746174655BD2
:100CC00025645D203D2025642C20496F5F7374618D
:100CD00074655B25645D203D202564200D0A0000BD
:100CE0000A20CBF9D3D0D6E1BFAACABCB3F5CABC9F
:100CF000BBAF0D0A00000000CBF9D3D0D6E1B3F5AD
:100D0000CABCBBAFCDEAB3C90D0A000010B586B0AE
:100D1000044699B10AF0B5FB5C493420C860002054
:100D2000012102940090CDE9031004A968460AF05D
:100D3000F5FB0AF0B4FB012006B010BD0020FBE774
:100D400010B51AB1514C3423E36005E0002010BD0A
:100D500010F8013B01F8013B521EF9D2012010BDF1
:100D60002DE9F0410D464949044656083420484FC4
:100D7000C86013E0BC4202D98120BDE8F0812A8816
:100D80000023214601200AF091FA20882988884210
:100D900001D08220F1E7A41CAD1C761E002EE9D103
:100DA0000120EAE72DE9F04F834638488A468BB0A8
:100DB000342190461446C160ABF10065B5F5003FA3
:100DC0000ED86CB1BAF1000F0AD00AF05AFB4FEA04
:100DD000D529C5F30A06C6F50065AC424CD94CE0EE
:100DE00000200BB0BDE8F08FB9F1400F47D24FF0B3
:100DF000006101EBC9204A1426490490FFF7A0FFC7
:100E0000244900208F1903E0395CFF2902D1401CDE
:100E1000A842F9D3A8421DD20498079001200026C9
:100E20000A960690089005960AA905A80AF076FB8E
:100E300028BB03E01AF80600B855761CAE42F9D379
:100E40004FF4006213490498FFF78AFF012808D184
:100E5000641E14E02A4651465846FFF781FF0128D8
:100E6000F6D1AA440BEB450B641B00264FF48065BA
:100E700009F10109AC4200D22546002CB4D10AF098
:100E80000EFBA8EB04004006000EAAE7002002407B
:100E900000000208509F0020032801D9FF2070475E
:100EA000334900EB800001EB800040780128F6D048
:100EB00000207047032806D800EB80012C4800EB87
:100EC0008100C16881607047032806D8284A00EB7A
:100ED000800002EB8000012141707047032808D890
:100EE00000EB8001224800EB8100C1688160022193
:100EF00041707047032807D800EB80021C4800EBC4
:100F00008200816001214170704710B5184A0021AC
:100F100001EB810402EB84004378012B0CD1836840
:100F200053B15B1E836007D1C368836043685B1C59
:100F30004360012002F82400491CC9B20329E7D309
:100F400010BD70B50A4C002101EB810214F822207B
:100F50004AB101EB810504EB85010969884700204E
:100F600004F8250070BD491CC9B20329ECD370BD3B
:100F70005401002070B504460023184659B10725D6
:100F8000491E09D3E25C504000225B1C060604D5D2
:100F900085EA400002E0002070BD4000521CD2B241
:100FA000C0B2082AF2D3EBE770B504460023184616
:100FB00061B148F20845491E09D3E25C5040002265
:100FC0005B1CC60704D085EA500002E0002070BD1B
:100FD0004008521CD2B2082AF3D3ECE770B50024C3
:100FE000621E59B1174D491E10D3035D5A400023AC
:100FF000641CD60704D085EA520202E0002070BDCE
:1010000052085B1CDBB2082BF3D3ECE7D04370BD76
:1010100030B504460023581E61B10B4D491E0AD35A
:10102000E25C80EA026000225B1C002804DA85EAA8
:10103000400002E0002030BD4000521CD2B2082A1D
:10104000F3D3EBE72083B8EDB71DC10449F60B518C
:101050000AF04FBD00F5104090F80A0D70472DE9D9
:10106000F0412B4E05460F463078002831D1012043
:10107000307005F5104494F80A0DC82811D394F87F
:10108000090DC92100FB01500AF033FD94F8090D48
:10109000C821401CB0FBF1F201FB120084F8090DDD
:1010A00002E0401C84F80A0D94F8080DC92100FBE9
:1010B00001500A4639460AF003FD94F8080D002154
:1010C000401CC0B284F8080D202801D384F8081D04
:1010D0003170BDE8F08110B500F510410C4691F873
:1010E000091DC92201FB020011460AF002FD94F815
:1010F0000A0D401E84F80A0D94F8090D401CC0B278
:1011000084F8090DC82802D3002084F8090D10BD09
:1011100090010020534800687047704738B5044676
:101120008DF800004FF47A73012269464E4807F0AB
:10113000E1FE204638BD70B50D460646002404E0A9
:10114000315D4AA00BF038F8641CAC42F8DB70BD8E
:1011500010B503F07AFB03F0E3FA03F06EFB03F043
:10116000F6FA4449444803F076FA44A00BF024F818
:101170004A4801884AA00BF01FF84F4801884FA049
:101180000BF01AF8BDE8104051A00BF015B810B5DF
:101190004FF47A7008F0A1FC00F022F800F008F893
:1011A00000F0C6F8FFF7D4FFBDE81040FFF74BBBD7
:1011B00010B52D4C54480C2120604FF4E130606094
:1011C0000020A060E060C4E90401A061E061204665
:1011D00007F058FD2068C16841F40051C16010BD9E
:1011E00070B54A4886B0816941F0400181618169EA
:1011F00001F040010491816941F00401816181693C
:1012000001F004010491816941F008018161816963
:1012100001F008010491816941F020018161806938
:10122000FF2500F0200004900020CDE900500324A9
:101230000220CDE902046946354809F03BF84FF435
:1012400070400126CDE9000669460394314809F053
:1012500031F8CDE9005669462F48039409F02AF881
:1012600006B070BDF0F7FF1F50A700202530327880
:1012700020000000A8010020A001002020573535E3
:101280003030BFC9D2D4BACDB5E7C4D4B5C4554403
:1012900050B6CBBFDACDA8D1B6200A00D2010020CB
:1012A000205735353030B5C4B1BEB5D8B6CBBFDA6E
:1012B000CEAA3A2564200A00D801002020D4B6B670
:1012C000CBB6CBBFDACEAA3A2564200A00000000D4
:1012D00020C1ACBDD3B3C9B9A6BAF3A3AC5043BBCC
:1012E000FAB7A2CBCDCAFDBEDDB8F85735353030E0
:1012F000A3AC5735353030BDABB7B5BBD8B6D4D3BA
:10130000A6CAFDBEDD200A000048004000100240D1
:1013100000180140000C014000140140134908600E
:10132000012070471149091D08600120704770476E
:101330001FB5002002904FF48050009001200190D2
:101340000220039069460A4808F0B4FF1FBD084B0D
:101350004FF4805108B1012200E00022184609F044
:1013600015B94FF48051024809F015B91008014031
:10137000000C01400F4882B0416941F040014161D9
:1013800040690E4900F0400000900B480860084694
:1013900002B00AF0D2BA10B50022074B02E0845C1A
:1013A0001C60521C8A42FADB186810BD02490120F9
:1013B0008860704700100240003002409401002015
:1013C00010B5224886B04FF08041016047210024CB
:1013D000C0E901144FF47A71C0E9031404F033FE3C
:1013E0004FF4805000906946184806F0FEFC0494C3
:1013F00004A91648059407F086FB06B010BD08B591
:101400000068B0F1804F12D11148C16941F001016B
:10141000C161C069002200F00100009001211C2080
:1014200009F003FEBDE808401C2009F01CBE08BD01
:101430000068B0F1804F07D10548C16921F0010172
:10144000C1611C2009F01CBE7047000090A700205D
:1014500000100240C160704702B1012209F096B845
:101460008068704770471FB5FF21FF4B032228B1EA
:101470000120CDE900100392694606E00020CDE985
:1014800000100220CDE902026946184608F012FF5A
:101490001FBD2DE9F04190460122F44E0C46550344
:1014A00029463046FFF7D8FF012291033046FFF767
:1014B000D3FF0122D70339463046FFF7CDFF002284
:1014C00029463046FFF7C8FF0120FFF7CCFFE84868
:1014D000C460E549C1F80C80002239463046FFF768
:1014E000BBFF012239463046FFF7B6FF01222946ED
:1014F0003046FFF7B1FF0020FFF7B5FF0020BDE841
:10150000F0812DE9F047DFF8649315460C464FF45F
:101510000058012241464846FFF79EFF01229103F1
:101520004846FFF799FF4FF4004A012251464846CA
:10153000FFF792FF002241464846FFF78DFF01204A
:10154000FFF791FFCA4EF460C74FE8B2F86000227F
:1015500051464846FFF780FF012251464846FFF7B3
:101560007BFF641CE0B2F060280AF860002251465C
:101570004846FFF771FF012251464846FFF76CFFCE
:10158000012241464846FFF767FF0020FFF76BFF47
:101590000020BDE8F0872DE9F047DFF8D09215462E
:1015A0000C464FF40058012241464846FFF754FFCD
:1015B000012291034846FFF74FFF4FF4004A0122F2
:1015C00051464846FFF748FF002241464846FFF78C
:1015D00043FF0120FFF747FFA54EF460A24FE8B29A
:1015E000F860002251464846FFF736FF0122514677
:1015F0004846FFF731FF601CC0B2F060C5F307201A
:10160000F860002251464846FFF726FF0122514666
:101610004846FFF721FFA41CE0B2F060C5F3074085
:10162000F860002251464846FFF716FF0122514656
:101630004846FFF711FFE0B2F060280EF860002284
:1016400051464846FFF708FF012251464846FFF73A
:1016500003FF012241464846FFF7FEFE0020FFF748
:1016600002FF002095E72DE9F04101227F4E0C4654
:10167000550329463046FFF7EFFE0122970339460E
:101680003046FFF7E9FE0122D1033046FFF7E4FEC2
:10169000002229463046FFF7DFFE7548C46000226D
:1016A00039463046FFF7D8FE6F4880680122C4B241
:1016B00039463046FFF7D0FE012229463046FFF773
:1016C000CBFE20461BE72DE9F047DFF8A0910C4642
:1016D0004FF40058012241464846FFF7BDFE4FF443
:1016E000804A012251464846FFF7B6FE0122D10347
:1016F0004846FFF7B1FE002241464846FFF7ACFEE0
:101700005B4EF460002251464846FFF7A5FE564F57
:10171000B8680122C5B251464846FFF79DFE641CD9
:10172000E0B2F060002251464846FFF795FEBC68E3
:10173000012251464846FFF78FFE012241464846A6
:10174000FFF78AFE05EB042080B222E72DE9F05F67
:10175000DFF818B10C464FF4005A012251465846A2
:10176000FFF77AFE012291035846FFF775FE01222A
:10177000D1035846FFF770FE002251465846FFF746
:101780006BFE3B4DEC6000224FF480415846FFF762
:1017900063FE354EB068012200F0FF099103584600
:1017A000FFF75AFE601CC0B2E86000224FF480418F
:1017B0005846FFF751FEB068012200F0FF08910380
:1017C0005846FFF749FEA01CC0B2E86000224FF463
:1017D00080415846FFF740FEB0680122C7B291032E
:1017E0005846FFF739FEE41CE0B2E86000224FF4EF
:1017F00080415846FFF730FEB468012291035846F5
:10180000FFF72AFE012251465846FFF725FE09EB55
:10181000082000EB074000EB0460BDE8F09F2DE9D5
:10182000F0411C46DDE9066517468046D9B101291D
:1018300026D002292AD003292ED0042932D01421FF
:10184000FFF784FF252138604046FFF70CFF00F0CA
:101850000F0121700009307026214046FFF703FF79
:10186000287000204BE605E000180140000C014004
:10187000001401400021FFF769FF20213860E3E7F1
:101880000421FFF763FF21213860DDE70821FFF71E
:101890005DFF22213860D7E70C21FFF757FF232196
:1018A0003860D1E71021FFF751FF24213860CBE7E2
:1018B0002DE9F0411546074679B3012939D00229AF
:1018C00042D003294BD0042954D03C21FFF7FBFE22
:1018D00006463E213846FFF7F6FE044625213846E7
:1018E000FFF7C1FE00F00F0001284ED9601C0AF07E
:1018F00008FB07460C4630460AF003FB0022FE4B6D
:101900000AF007FA6FF00F020AF0E4FA3A462346AB
:101910000AF071FA0AF002FB38E0FFE72821FFF72E
:10192000D2FE06462A213846FFF7CDFE0446202186
:10193000D5E72C21FFF7C7FE06462E213846FFF7D4
:10194000C2FE04462121CAE73021FFF7BCFE06464D
:1019500032213846FFF7B7FE04462221BFE7342183
:10196000FFF7B1FE064636213846FFF7ACFE0446C7
:101970002321B4E73821FFF7A6FE06463A21384670
:10198000FFF7A1FE04462421A9E7002028600020DB
:10199000B5E510B5044601220521FFF77AFD0022C6
:1019A00005212046FFF775FD401C01D0002010BD29
:1019B0004FF0FF3010BD10B5044601220621FFF79D
:1019C00068FD002206212046FFF763FD401C01D080
:1019D000002010BD4FF0FF3010BD70B50446DDE9AA
:1019E000046015004FF0000200D0012203B1921CE8
:1019F00006B1121D00B108324FF0FF3531B1012997
:101A00000FD002290FD0032915D012E0142120464F
:101A1000FFF73FFD401C10D014212046FFF723FEA6
:101A200007E0322100E050212046FFF732FD401C44
:101A300003D0002070BD6E21F6E7284670BD70B55A
:101A400005464FF0FF3431B101290BD0022916D0E1
:101A500003291BD011E001221621FFF71AFD0022F5
:101A6000162105E001223421FFF713FD0022342165
:101A70002846FFF70EFD401C0FD0002070BD01224C
:101A80005221FFF706FD00225221F1E701227021C9
:101A9000FFF7FFFC00227021EAE7204670BD2DE928
:101AA000FF4F87B0884605A904A8149ECDE9000120
:101AB0009A46144602AB03AA41460798FFF7AFFEC9
:101AC0009DF8080020B16FF001000BB0BDE8F08F69
:101AD00040F6CC404FF0000B40F6B735864200D9B7
:101AE0006D1041F69910864201D940F2572543F214
:101AF0003330864201D940F22B15B6F5004F00D3A2
:101B00009525B6F5803F00D33B257C48864200D919
:101B10001D257B48864200D90E257A48864200D989
:101B200005257948864200D902257848864200D9A1
:101B30000125681C0AF0E5F902460B4600207449AD
:101B40000AF059F90746894630460AF0DAF93A466A
:101B50004B460AF050F90AF0E1F981460CB18026B3
:101B600000E00026B8F1000F09D0B8F1010F08D04D
:101B7000B8F1020F07D0B8F1030F06D006E0142425
:101B800004E0322402E0502400E06E24671C394651
:101B900000220798FFF77DFC401C23D02A4604F161
:101BA0000D010798FFF7ADFC1FFA89F2E11D0798B8
:101BB000FFF7A7FC04F11B0152460798FFF769FCE9
:101BC000324604F115010798FFF79BFC39460122C4
:101BD0000798FFF75EFC394600220798FFF759FC8B
:101BE000584672E74FF0FF306FE710B50446002209
:101BF000D821FFF74EFC00222F212046FFF749FC99
:101C000000224D212046FFF744FC00226B21204694
:101C1000FFF73FFC002289212046FFF73AFC002015
:101C200010BD2DE9FF4F87B00F46DDE914A505A9CA
:101C300004A8CDE900019B46904602AB03AA3946B1
:101C40000798FFF7ECFD9DF8080010B16FF0010058
:101C50003BE7002000900798FFF7C7FF40F6CC4015
:101C600040F6B734854200D9641041F69910854298
:101C700001D940F2572443F23330854201D940F272
:101C80002B14B5F5004F00D39524B5F5803F00D354
:101C90003B241A48854200D91D241948854200D9A1
:101CA0000E241848854200D905241748854200D9DA
:101CB00002241648854200D90124601C0AF021F94B
:101CC00002460B46002012490AF095F8064689465E
:101CD00050460AF016F94B4632460AF08CF80AF0E4
:101CE0001DF9824628460AF00CF94B4632460AF0A6
:101CF00082F80AF013F90DE000C07241FEFF010006
:101D0000FBFF0400F6FF0900ECFF1300CEFF3100DB
:101D100000C072408146B8F1000F01D0822500E07A
:101D2000022537B1012F07D0022F08D0032F09D089
:101D30000AE04FF0140807E04FF0320804E04FF0DB
:101D4000500801E04FF06E0808F10106314600220C
:101D50000798FFF79EFB401C2AD0224608F10D0190
:101D60000798FFF7CEFB1FFA8AF2B11D0798FFF71D
:101D7000C8FB1FFA89F208F109010798FFF7C1FBB8
:101D800008F11B015A460798FFF783FB2A4608F122
:101D900015010798FFF7B5FB314601220798FFF7B9
:101DA00078FB314600220798FFF773FB00988CE61A
:101DB0004FF0FF3089E62DE9FF4F87B00F4605A9A8
:101DC00004A8159DCDE900019B46904602AB03AAED
:101DD00039460798FFF723FD9DF8080010B16FF012
:101DE000010072E6002000900798FFF7FEFE40F623
:101DF000CC4040F6B734854200D9641041F69910C2
:101E0000854201D940F2572443F23330854201D94B
:101E100040F22B14B5F5004F00D39524B5F5803F63
:101E200000D33B24FE48854200D91D24FD4885424D
:101E300000D90E24FC48854200D90524FB48854280
:101E400000D90224FA48854200D90124601C0AF016
:101E500058F802460B460020F64909F0CCFF8A46A6
:101E60000646D14614980AF04CF84B46324609F023
:101E7000C2FF0AF053F8814628460AF042F853465A
:101E8000324609F0B8FF0AF049F88246B8F1000F6F
:101E900001D0832500E00325169808B105F580756B
:101EA00037B1012F07D0022F08D0032F09D00AE045
:101EB0004FF0140807E04FF0320804E04FF05008EC
:101EC00001E04FF06E0808F1010631460022079844
:101ED000FFF7DFFA401C2AD0224608F10D010798CF
:101EE000FFF70FFB1FFA89F2B11D0798FFF709FBF7
:101EF0001FFA8AF208F109010798FFF702FB08F1BF
:101F00001B015A460798FFF7C4FA2A4608F1150143
:101F10000798FFF7F6FA314601220798FFF7B9FA5A
:101F2000314600220798FFF7B4FA0098CDE54FF04C
:101F3000FF30CAE52DE9FF4F87B00F4605A904A879
:101F4000CDE900011D46904602AB03AA3946079829
:101F5000FFF765FC9DF80800072802D06FF001002C
:101F6000B3E540F6CC404FF0000B40F6B734854265
:101F700000D9641041F69910854201D940F25724E6
:101F800043F23330854201D940F22B14B5F5004FAE
:101F900000D39524B5F5803F00D33B24A04885426B
:101FA00000D91D249F48854200D90E249E488542B1
:101FB00000D905249D48854200D902249C488542C9
:101FC00000D90124601C09F09CFF02460B4600204A
:101FD000984909F010FF06468946404609F091FFEE
:101FE0004B46324609F007FF09F098FF8246284623
:101FF00009F087FF32464B4609F0FDFE09F08EFFDF
:10200000054637B1012F07D0022F08D0032F09D082
:102010000AE04FF0140807E04FF0320804E04FF0F8
:10202000500801E04FF06E08224608F10D010798B4
:10203000FFF767FA1FFA8AF208F107010798FFF71E
:1020400060FAAAB208F109010798FFF75AFA584650
:102050003BE52DE9FF4F97B08846DDE925A716A996
:1020600015A8DDF8A4B0CDE900011C4612AB14AAF6
:1020700041461798FFF7D3FB9DF848106EA00AF071
:102080009BF89DF8480000287ED140F6CC4040F6F1
:10209000B735874200D96D1041F69910874201D9B2
:1020A00040F2572543F23330874201D940F22B15D5
:1020B000B7F5004F00D39525B7F5803F00D33B25FA
:1020C0005748874200D91D255648874200D90E251A
:1020D0005548874200D905255448874200D9022532
:1020E0005348874200D901251798FFF77EFD681CE9
:1020F00009F007FFCDE9000102460B4600204D49DB
:1021000009F079FE06468946504609F0FAFE4B462C
:10211000324609F070FE09F001FF0990384609F0D7
:10212000F0FE32464B4609F066FE09F0F7FE014626
:1021300008900998081A09F0E4FE0022424B09F0C1
:102140005AFE0746DFF804A11998894658B314B11E
:1021500040F2814601E040F20146584609F0D1FEC6
:102160000022D346534609F046FE3A464B4609F054
:1021700042FE4FF0FF3A524609F0ACFE09F0CEFEA7
:1021800080B207902A9800E05AE109F0BAFE0022D6
:102190005B4609F030FE3A464B4609F02CFE5246AB
:1021A00009F098FE1DE00CB1812600E0012658469A
:1021B00009F0A7FE0022534609F01DFE3A464B46A1
:1021C00009F019FE09F0AAFE80B207902A9809F0DA
:1021D00098FE0022534609F00EFE3A464B4609F09F
:1021E0000AFE09F09BFE80B206902B9808B106F516
:1021F0008076089809F085FE02460B4609F089FDB5
:1022000082468B46099809F07CFE02460B4609F08F
:1022100080FD074619988946E8B3DDE9001017E00C
:10222000FEFF0100FBFF0400F6FF0900ECFF1300B6
:10223000CEFF310000C0724052756E5374617465F8
:10224000203D25640A00000000C0724100408F401C
:10225000CDE90F010798401C09F053FECDE90D10A0
:102260003A464B465046594609F04DFDDDE90D32E0
:1022700009F04FFDDDE90F3209F0BDFD6FF00F02EF
:1022800009F028FE0C910A90DDE90010CDE90D015E
:102290000698401C00E014E009F033FECDE900018F
:1022A0003A464B465046594609F02DFDDDE90023DC
:1022B00009F02FFDDDE90D3209F09DFD6FF00F02F1
:1022C0003FE0DDE900010A9007981091401C09F0F9
:1022D00018FECDE90E013A464B465046594609F0E4
:1022E00012FDDDE90E2309F014FD109B0A9A09F096
:1022F00082FD6FF00F0209F0EDFD4FF0FF3209F0A3
:10230000E9FD0C910A90DDE900011090069800911A
:10231000401C09F0F6FD01910E903A464B4650469E
:10232000594609F0F0FC019B0E9A09F0F2FC009B63
:10233000109A09F060FD6FF00F0209F0CBFD4FF02D
:10234000FF3209F0C7FD07468946279809F0D9FDF5
:1023500082468B46384649460C9B0A9A09F032FC65
:102360000022FD4B09F02EFC52465B4609F0F0FDC1
:1023700004D227986FF00209470803E0289880B13B
:102380000746B946DDF890A0B8F1000F10D0B8F1BB
:10239000010F0FD0B8F1020F0ED0B8F1030F0DD01E
:1023A0000DE03846494609F0B9FD27990F1AE8E7CC
:1023B000142404E0322402E0502400E06E24611C66
:1023C000884600221798FFF764F8401C38D0E11CBB
:1023D000279A1798FFF7DFF804F111013A4617988A
:1023E000FFF7D9F804F10B01079A1798FFF789F85E
:1023F00004F10F01069A1798FFF783F82A4604F1B3
:102400000D011798FFF77DF80998E11D82B2179822
:10241000FFF777F8089804F1090182B21798FFF7DF
:1024200070F804F11B0152461798FFF732F8324654
:1024300004F115011798FFF764F82C9828B10EE005
:102440004FF0FF301BB0BDE8F08F414601221798D6
:10245000FFF71FF8414600221798FFF71AF8484681
:10246000F0E710B50C463221FFF770F9206000202C
:1024700010BD2DE9FF4F9DB092462EAA1AAD92E8ED
:10248000C00219A8CDE900051C468B4618AB1BAA53
:10249000DDF8C4801D98FFF7C2F99DF8600058B9B7
:1024A00019A8CDE9000518AB1BAA51461D98FFF7E6
:1024B000B6F99DF8600018B16FF0010021B0C2E7D5
:1024C00040F6CC4040F6B735864200D96D1041F653
:1024D0009910864201D940F2572543F233308642A3
:1024E00001D940F22B15B6F5004F00D39525B6F56E
:1024F000803F00D33B259948864200D91D25984846
:10250000864200D90E259748864200D9052596486F
:10251000864200D902259548864200D901251D989A
:10252000FFF763FB681C09F0ECFC0B4602460691C2
:10253000049000208E4909F05EFCCDE90010059161
:1025400008902D9809F0DDFC059B089A09F053FCD2
:1025500009F0E4FC0A90DDE90010CDE90201304603
:1025600009F0CFFCDDE9022309F045FC09F0D6FCB7
:1025700001460B900A98081A09F0C3FC00227D4B13
:1025800009F039FC0E46009084B32A9A40F2C1400B
:1025900040F241410AB1119000E011912B9A0AB129
:1025A000139000E01391329809F0ABFC0022724BBB
:1025B00009F021FC3346009A09F01DFC4FF0FF3270
:1025C00009F088FC09F0AAFC80B20390339809F066
:1025D00098FC0022684B09F00EFC3346009A09F083
:1025E0000AFC4FF0FF3209F075FC26E0FFE72A985D
:1025F00008B1C12000E0412011902B9808B1C12002
:1026000000E041201390329809F07BFC00225A4BE5
:1026100009F0F1FB3346009A09F0EDFB09F07EFC6E
:1026200080B20390339809F06CFC0022524B09F001
:10263000E2FB3346009A09F0DEFB09F06FFC80B242
:102640000290349838B1119800F580701190139869
:1026500000F5807013906FF002014F4516D9B7FB5B
:10266000F9F61398059700F5006013904846B6F503
:10267000803F16D2B7FBF0F109FB1170159018B12D
:102680001599B9FBF1F017E0012015E0B9FBF7F659
:102690001198CDF8149000F500601190B6F5803FC8
:1026A00001D308460AE7B9FBF7F107FB1190159033
:1026B0000028E9D0B7FBF0F0149006B1761E08B1FF
:1026C000401E14900B9809F01CFC02460B4609F0C2
:1026D00020FBCDE900010A9809F013FC02460B46E5
:1026E00009F017FBCDE90710069904980D91109099
:1026F000039800F1010074B309F003FC16910C90EB
:10270000DDE90001DDE9073209F0FDFA169B0C9ABC
:1027100009F0FFFA0D9B109A09F06DFB6FF00F02A4
:1027200009F0D8FBCDE90C010699049810900298A5
:102730000491401C09F0E5FB0F910690DDE90001D2
:10274000DDE9073209F0DFFA0F9B069A09F0E1FA9A
:10275000049B109A12E016E000005940FEFF0100B1
:10276000FBFF0400F6FF0900ECFF1300CEFF310071
:1027700000C0724000C0724100408F4009F03BFB36
:102780006FF00F0239E009F0BCFB0F911290DDE908
:102790000001DDE9073209F0B6FA0F9B129A09F041
:1027A000B8FA0D9B109A09F026FB6FF00F0209F0A2
:1027B00091FB4FF0FF3209F08DFBCDE90C0104993C
:1027C0000698CDE90F010298401C09F09AFB06918A
:1027D0000490DDE90001DDE9073209F094FA069B77
:1027E000049A09F096FADDE90F3209F004FB6FF064
:1027F0000F0209F06FFB4FF0FF3209F06BFB019104
:10280000069048464F4521D9384609F07AFBDDE964
:102810000C23009104900199069809F0D3F9002245
:10282000FE4B09F0CFF9009B049A09F091FB04D20A
:102830006FF001000790780820E0B8F1000F29D16F
:102840000199069809F06AFB381A22E009F059FB51
:10285000DDE90C23049100900199069809F0B2F982
:102860000022EE4B09F0AEF9049B009A09F070FBD0
:1028700006D26FF0010007904FEA590080460BE046
:10288000B8F1000F06D10199069809F047FBA9EBB2
:1028900000008046CDF81C802C980190BBF1000F01
:1028A00009D0BBF1010F14D0BBF1020F1FD0BBF157
:1028B000030F2AD039E01424B2B28C211D98FEF700
:1028C00020FE8E21149A1D98FEF765FE9221159A1E
:1028D00028E03224B2B296211D98FEF712FE98210C
:1028E000149A1D98FEF757FE9C21159A1AE0502461
:1028F000B2B2A0211D98FEF704FEA221149A1D98E1
:10290000FEF749FEA621159A0CE06E24B2B2AA2168
:102910001D98FEF7F6FDAC21149A1D98FEF73BFEBC
:10292000159AB0211D98FEF736FE611C00221D98F5
:10293000FEF7AFFD401C72D0E11C3A461D98FEF731
:102940002AFE04F1110142461D98FEF724FE04F10F
:102950000B01039A1D98FEF7D4FD04F10F01029AB2
:102960001D98FEF7CEFD2A4604F10D011D98FEF7D5
:10297000C8FD0A98E11D82B21D98FEF7C2FD0B98B2
:1029800004F1090182B21D98FEF7BBFD04F11701A5
:10299000059A1D98FEF7FFFD04F11B01019A1D9891
:1029A000FEF777FD04F11501119A1D98FEF7A9FDB8
:1029B000BAF1000F09D0BAF1010F14D0BAF1020F29
:1029C0001FD0BAF1030F2BD03AE01424B2B28C21FD
:1029D0001D98FEF796FD8E21149A1D98FEF7DBFDDB
:1029E0009221159A29E03224B2B296211D98FEF761
:1029F00088FD9821149A1D98FEF7CDFD9C21159A0B
:102A00001BE05024B2B2A0211D98FEF77AFDA2214E
:102A1000149A1D98FEF7BFFDA621159A0DE055E00A
:102A20006E24B2B2AA211D98FEF76BFDAC21149A58
:102A30001D98FEF7B0FD159AB0211D98FEF7ABFD6D
:102A4000611C00221D98FEF724FD401C3ED0E11CB5
:102A50004A461D98FEF79FFD04F1110142461D985C
:102A6000FEF799FD04F10B01039A1D98FEF749FD4D
:102A700004F10F01029A1D98FEF743FD2A4604F166
:102A80000D011D98FEF73DFD0A98E11D82B21D98CB
:102A9000FEF737FD0B9804F1090182B21D98FEF78D
:102AA00030FD04F11701059A1D98FEF774FD04F13D
:102AB0001B01019A1D98FEF7ECFC04F11501139A15
:102AC0001D98FEF71EFD359818B14EE04FF0FF300F
:102AD000F4E4BBF1000F1BD0BBF1010F1AD00422AC
:102AE000BAF1000F18D0BAF1010F17D0121D03214F
:102AF0001D98FEF7CEFCBBF1000F11D0BBF1010F0A
:102B000010D0BBF1020F0FD0BBF1030F0ED00EE0BF
:102B10000122E5E70222E3E7521CE8E7921CE6E720
:102B2000142404E0322402E0502400E06E24611CEE
:102B300000221D98FEF7ADFCBAF1000F09D0BAF1E2
:102B4000010F08D0BAF1020F07D0BAF1030F06D077
:102B500006E0142404E0322402E0502400E06E2455
:102B6000611C00221D98FEF794FC0798A6E42DE94D
:102B7000FF4F9DB00DF16C0ADDE93354DDE931768C
:102B80000DF16809CDE9009ADDF8C080DDE91D018D
:102B900019AB1CAAFEF743FE9DF86400A8B9CDE965
:102BA000009A19AB1CAA1F991D98FEF738FE9DF8D4
:102BB000640050B9CDE9009A19AB1CAA20991D9860
:102BC000FEF72DFE9DF8640010B16FF0010075E472
:102BD000002007900690089040F6CC4040F6B739A8
:102BE000804501D940F2DB5941F69910804501D961
:102BF00040F2572943F23330804501D940F22B1976
:102C0000B8F5004F01D34FF09509B8F5803F01D3D7
:102C10004FF03B090248804506D903E000005940C7
:102C2000FEFF01004FF01D09FB48804501D94FF020
:102C30000E09FA48804501D94FF00509F84880454A
:102C400001D94FF00209F748804501D94FF0010939
:102C50001D98FEF7CAFF09F1010009F052F90B4671
:102C60000246039100900020EF4909F0C4F8824623
:102C70008B462F9809F045F952465B4609F0BBF8A0
:102C800009F04CF90590404609F03BF952465B4685
:102C900009F0B1F809F042F9014604900598081AC4
:102CA00009F02FF90022E14B09F0A5F883462A9894
:102CB0000F91A8B32B9A40F2C14040F241410AB1B2
:102CC000824600E08A462C9A0AB1804600E0884697
:102CD0002D9A0AB1119000E01191359809F011F97F
:102CE0000022D34B09F087F85A460F9B09F083F86E
:102CF0004FF0FF3209F0EEF809F010F980B20290BF
:102D0000369809F0FEF80022C94B09F074F85A46CB
:102D10000F9B09F070F84FF0FF3209F0DBF82CE060
:102D2000FFE72B9808B1C12000E0412082462C9893
:102D300008B1C12000E0412080462D9808B1C12093
:102D400000E041201190359809F0DBF80022B84BE3
:102D500009F051F85A460F9B09F04DF809F0DEF8DA
:102D600080B20290369809F0CCF80022B04B09F0FE
:102D700042F85A460F9B09F03EF809F0CFF880B2AE
:102D80000190379838B111980AF5807A00F5807073
:102D900008F5807811906FF00201B7423DD9AF423B
:102DA00020D911984FF4803200F500601190B7FBE4
:102DB000F6F008F50068069790427CD2B7FBF6F073
:102DC00006FB107008B1B6FBF0F0B7FBF5F0089702
:102DD000904270D2B7FBF5F005FB1070F0B3B5FB75
:102DE000F0F03DE0B5FBF6F04FF4803208F50068F6
:102DF0000AF5006A069590425DD2B5FBF6F006FB37
:102E0000105008B1B6FBF0F0B5FBF7F00795904213
:102E100076D277E0B7FBF0F022E0AE42E2D911982B
:102E20004FF4803200F500601190B6FBF5F00AF522
:102E3000006A0896904263D2B6FBF5F005FB10607D
:102E400008B1B5FBF0F0B6FBF7F00796904257D209
:102E5000B6FBF7F007FB1060002800E000E0D9D1D6
:102E6000049809F04EF802460B4608F052FFCDE9EF
:102E70000E01059809F045F802460B4608F049FF97
:102E800083462A980991D0B300990398CDE915019A
:102E90000298401C09F035F817911490DDE90E01F5
:102EA0005A46099B08F02FFF179B149A08F031FF30
:102EB000DDE9153200E023E008F09DFF6FF00F021E
:102EC00009F008F8CDE90C0103990098CDE9140147
:102ED0000198401C09F015F803910090DDE90E01FE
:102EE0005A46099B08F00FFF039B009A08F011FF58
:102EF000DDE9142308F07FFF6FF00F0245E006E0E4
:102F00000846E5E5B5FBF7F007FB1050A4E700988D
:102F10001890029803991591401C08F0F2FF0D914A
:102F20001690DDE90E015A46099B08F0ECFE0D9B58
:102F3000169A08F0EEFE159B189A08F05CFF6FF0E9
:102F40000F0208F0C7FF4FF0FF3208F0C3FFCDE9D2
:102F50000C01009816900198401C08F0D2FF1491C3
:102F60000090DDE90E015A46099B08F0CCFE149B47
:102F7000009A08F0CEFE039B169A08F03CFF6FF013
:102F80000F0208F0A7FF4FF0FF3208F0A3FF8346BF
:102F90000F91B74223D9AF4221D9384608F0B1FF8B
:102FA00003910090DDE90C2358460F9908F00AFEC2
:102FB0000022204B08F006FE039B009A08F0C8FF91
:102FC00004D26FF001000C90780862E02CB95846EA
:102FD0000F9908F0A3FF381A35E0A34634E0BE424B
:102FE0003FD9AE423DD9304608F08BFF00910A90A0
:102FF000DDE90C2358460F9908F0E4FD00220D4B43
:1030000008F0E0FD009B0A9A08F0A2FF14D26FF0CE
:1030100001000C9070083CE0FBFF0400F6FF090083
:10302000ECFF1300CEFF310000C0724000C07241BF
:1030300000408F4000005940002CCED158460F99D7
:1030400008F06CFF301A8346CDF830B02E9803900C
:103050001E9840B3012828D0022828D0032828D061
:1030600028E0284608F04DFF03910090DDE90C238D
:1030700058460F9908F0A6FD0022FE4B08F0A2FD6D
:10308000039B009A08F064FF05D26FF001000C90DA
:1030900068088346DAE7002C9FD158460F9908F05C
:1030A0003DFF281ACFE7142404E0322402E0502424
:1030B00000E06E24611C00221D98FEF7EAF9401C16
:1030C0007DD0E11C3A461D98FEF765FA04F1110126
:1030D0005A461D98FEF75FFA04F10B01029A1D98FB
:1030E000FEF70FFA04F10F01019A1D98FEF709FA95
:1030F0004A4604F10D011D98FEF703FA0598E11DFB
:1031000082B21D98FEF7FDF9049804F1090182B21C
:103110001D98FEF7F6F904F11701079A1D98FEF7BE
:103120003AFA04F11B01039A1D98FEF7B2F95246D0
:1031300004F115011D98FEF7E4F91F9830B101283C
:1031400006D0022806D0032806D006E0142404E0A6
:10315000322402E0502400E06E24611C00221D98FD
:10316000FEF797F9401C2AD0E11C32461D98FEF765
:1031700012FA04F111015A461D98FEF70CFA04F1F7
:103180000B01029A1D98FEF7BCF904F10F01019A98
:103190001D98FEF7B6F94A4604F10D011D98FEF799
:1031A000B0F90598E11D82B21D98FEF7AAF90498BE
:1031B00004F1090182B21D98FEF7A3F900E067E06F
:1031C00004F11701069A1D98FEF7E5F904F11B01B9
:1031D000039A1D98FEF75DF9424604F115011D980A
:1031E000FEF78FF9209830B1012806D0022806D0CA
:1031F000032806D006E0142404E0322402E0502420
:1032000000E06E24611C00221D98FEF742F9401C6C
:103210003ED0E11C2A461D98FEF7BDF904F11101CC
:103220005A461D98FEF7B7F904F10B01029A1D9852
:10323000FEF767F904F10F01019A1D98FEF761F995
:103240004A4604F10D011D98FEF75BF90598E11D52
:1032500082B21D98FEF755F9049804F1090182B273
:103260001D98FEF74EF904F11701089A1D98FEF714
:1032700092F904F11B01039A1D98FEF70AF904F173
:103280001501119A1D98FEF73CF9389818B134E0F1
:103290004FF0FF301CE401201E991F9A00FA01F143
:1032A00000FA02F21144209A90400844C2B203216D
:1032B0001D98FEF7EEF81E981424C0EB001004EBE6
:1032C0004000401CC1B200221D98FEF7E2F81F9892
:1032D0000022C0EB001004EB4000401CC1B21D985E
:1032E000FEF7D7F820980022C0EB001004EB400056
:1032F000401CC1B21D98FEF7CCF80C9836E42DE9BD
:10330000FF4F97B015A9DDE9259514A8DDF8A8A011
:10331000CDE90001DDE91701984612AB13AAFEF7CB
:103320007EFA9DF8480020B16FF001001BB0BDE8A7
:10333000F08F40F6CC4040F6B734854200D9641097
:1033400041F69910854201D940F2572443F23330B7
:10335000854201D940F22B14B5F5004F00D39524D6
:10336000B5F5803F00D33B244348854200D91D2456
:103370004248854200D90E244148854200D905249F
:103380004048854200D902243F48854200D90124A3
:10339000601C08F0B6FDCDE902010B460246002094
:1033A0003A4908F028FD06460F46484608F0A9FDB0
:1033B00032463B4608F01FFD08F0B0FD0490284659
:1033C00008F09FFD32463B4608F015FD08F0A6FDCB
:1033D000014607900498081A08F093FD00222C4B30
:1033E00008F009FD0546DFF8AC9019980F4650B378
:1033F000B8F1000F02D040F2C14601E040F2414670
:10340000504608F07EFD00224B4608F0F4FC2A46A8
:103410003B4608F0F0FC4FF0FF38424608F05AFDFA
:1034200008F07CFD1FFA80FB2B9808F06AFD002253
:103430004B4608F0E0FC2A463B4608F0DCFC4246DE
:1034400008F048FD32E0B8F1000F01D0C12600E0DD
:103450004126504608F055FD00224B4608F0CBFCB3
:103460002A463B4608F0C7FC08F058FD1FFA80FBCF
:103470002B9811E000005940FEFF0100FBFF040003
:10348000F6FF0900ECFF1300CEFF310000C07240D0
:1034900000C0724100408F4008F033FD00224B46CF
:1034A00008F0A9FC2A463B4608F0A5FC08F036FDCA
:1034B0001FFA80FA2C9808B106F580762D9808B985
:1034C00006F50066079808F01CFD02460B4608F05A
:1034D00020FC80468946049808F013FD02460B46FE
:1034E00008F017FC054619980F460028DDE902018F
:1034F00036D010900D910BF1010008F002FDCDE9DE
:103500000E012A463B464046494608F0FCFBDDE9F1
:103510000E2308F0FEFB0D9B109A08F06CFC6FF078
:103520000F0208F0D7FC08910C90DDE90210CDE9FC
:103530000D010AF1010008F0E4FCCDE902012A4680
:103540003B464046494608F0DEFBDDE9022308F031
:10355000E0FBDDE90D3208F04EFC6FF00F023DE0BC
:1035600008900C910BF1010008F0CBFCCDE90F1095
:103570002A463B464046494608F0C5FBDDE90F3286
:1035800008F0C7FB0C9B089A08F035FC6FF00F029F
:1035900008F0A0FC4FF0FF3208F09CFC08910C9062
:1035A000DDE90201109002910AF1010008F0A9FC86
:1035B00003910E902A463B464046494608F0A3FB3D
:1035C000039B0E9A08F0A5FB029B109A08F013FCCF
:1035D0006FF00F0208F07EFC4FF0FF3208F07AFC2B
:1035E00005462D980F4608B3279808F08AFC8046B8
:1035F000894628463946089B0C9A08F0E3FA0022CF
:10360000FA4B08F0DFFA42464B4608F0A1FC03D221
:103610006FF00108279820E0299828B928463946F4
:1036200008F07CFC279922E0074621E0289808F062
:1036300068FC8046894628463946089B0C9A08F063
:10364000C1FA0022E94B08F0BDFA42464B4608F0A9
:103650007FFC04D228986FF00108470809E02998F8
:103660000028E1D12846394608F058FC28990F1A5D
:10367000B8461898DDF89090052801D905201890D3
:10368000C0EB0010142101EB400085B2681CC1B2F0
:1036900000221798FDF7FDFE401C46D0E81CC1B281
:1036A000279A1798FDF777FF05F11100C1B23A4646
:1036B0001798FDF770FF05F10B00C1B25A46179835
:1036C000FDF71FFF05F10F00C1B252461798FDF735
:1036D00018FF05F10D00C1B222461798FDF711FF42
:1036E000049882B2E81DC1B21798FDF70AFF079847
:1036F00082B205F10900C1B21798FDF702FF05F18A
:103700001700C1B2289A1798FDF745FF05F11B0075
:10371000C1B24A461798FDF7BCFE15353246E9B2EC
:103720001798FDF7EEFE404600E64FF0FF30FDE54E
:103730002DE9F04115460022069F1C460E468046A4
:10374000012900D10122012D00D1921C012C00D1B0
:10375000121D012F00D108320321FDF79AFE401CF3
:1037600002D0012E04D008E04FF0FF30BDE8F08118
:10377000002215214046FDF78CFE012D04D10022C8
:1037800033214046FDF785FE012C04D10022512152
:103790004046FDF77EFE012F04D100226F214046F6
:1037A000FDF777FE0020E1E72DE9F04716460F46CA
:1037B00000241D4681462246D821DDF82080FDF7F1
:1037C00068FE012F00D10124012E00D1A41C012D7F
:1037D00000D1241DB8F1010F00D108342246072181
:1037E0004846FDF756FE401C02D0012F04D008E0E9
:1037F0004FF0FF30BDE8F087002216214846FDF764
:1038000048FE012E04D1002234214846FDF741FE36
:10381000012D04D1002252214846FDF73AFEB8F1AD
:10382000010F04D1002270214846FDF732FE00202E
:10383000E0E72DE9F0410C46DDE90715069F064655
:10384000002A01DA002004E0072A01DD072000E059
:10385000D0B20BB1082200E0002201B110211044C7
:103860000844C2B20FB12032D2B234B1012C06D01A
:10387000022C06D0032C11D007E00A2102E00B2114
:1038800000E00C213046FDF704FE95B144B1012C57
:1038900008D0022C09D0032C09D01DE00D21F1E73E
:1038A000012200E00222092113E00422FBE70822A2
:1038B000F9E734B1012C06D0022C06D0032C06D037
:1038C0000AE0012204E0022202E0042200E00822D1
:1038D00008213046FDF7DDFD002047E761B10129F1
:1038E0000CD002290CD003290CD004290CD00529B6
:1038F0000CD16421FDF72ABF5021FBE75421F9E7E1
:103900005821F7E75C21F5E76021F3E7704710B530
:103910006B21FDF7A8FE002800D0012010BD2DE985
:10392000FF4F87B00DF1140BDDE9174504A8149E75
:10393000CDE9000B994690460F4602AB03AADDF88D
:1039400058A00798FDF76BFF9DF8080058B904A927
:10395000CDE9001B02AB03AA41460798FDF75FFFC4
:103960009DF8080018B16FF001000BB0DFE4022FE2
:1039700002D96FF00200F8E7002002460090D8213B
:103980000798FDF786FD15986FF07F4108446FF0AA
:103990007E4188420ED24FF080718A450ADA484251
:1039A000824507DD8C4205DA844203DD8D4201DA6F
:1039B000854202DC6FF00300D7E7C821159A07980B
:1039C000FDF7E9FD5246CC210798FDF7E4FD2246BC
:1039D000D0210798FDF7DFFD2A46D4210798FDF78F
:1039E000DAFD199820B1102003E0000000005940D2
:1039F000112000EB4700C2B2D8210798FDF749FD1E
:103A00001A9808B1012200E00022D9210798FDF799
:103A100040FD40F6CC4040F6B735864200D96D10E7
:103A200041F69910864201D940F2572543F23330CE
:103A3000864201D940F22B15B6F5004F00D39525EB
:103A4000B6F5803F00D33B254348864200D91D256B
:103A50004248864200D90E254148864200D90525B4
:103A60004048864200D902253F48864200D90125B8
:103A7000681C08F046FA02460B4600203B4908F055
:103A8000BAF982468B46304608F03BFA52465B460E
:103A900008F0B1F908F042FA8246B8F1000F09D0F7
:103AA000B8F1010F08D0B8F1020F07D0B8F1030F39
:103AB00006D006E0142404E0322402E0502400E0A2
:103AC0006E2409F12000C2B204F11B010798FDF732
:103AD000E0FC27B1012F04D0022F04D004E014240D
:103AE00002E0322400E05024661C31460022079890
:103AF000FDF7CFFC401C2CD02A4604F10D0107989D
:103B0000FDF7FFFC4FF47A72E11D0798FDF7F9FC11
:103B10001FFA8AF204F109010798FDF7F2FC09F196
:103B20001000C2B204F11B010798FDF7B2FC03229A
:103B300004F115010798FDF7E4FC314601220798CE
:103B4000FDF7A7FC314600220798FDF7A2FC00987C
:103B50000BE74FF0FF3008E7FEFF0100FBFF04001A
:103B6000F6FF0900ECFF1300CEFF310000C07240E9
:103B700070B505464FF4847000EB451004461021E3
:103B800000F006FF204600F01EFF0028FAD14FF497
:103B9000027000EB4510BDE87040FF2100F0F8BE58
:103BA0002DE9F041054601F00F001F4616460C4670
:103BB00001280AD0022808D0032806D0042804D0FF
:103BC000052802D00020BDE8F0812846FFF7D0FF8D
:103BD000082044EA070100EB451000F0D9FE4FF43D
:103BE00081604FF4A16100EB451001EB451426B153
:103BF000310A00F0CDFEF1B208E0FE4E3188491CDA
:103C000089B23180090A00F0C3FE3178204600F005
:103C1000BFFE4FF4847000EB45100446012100F014
:103C2000B7FE204600F0CFFE0028FAD10120CAE7F7
:103C300010B504464FF4427000EB441000F0C3FE90
:103C4000132801D0002010BD4FF4847000EB441005
:103C50000446022100F09CFE204600F0B4FE00283D
:103C6000FAD1012010BD2DE9F0410C460978174624
:103C70000546FF2901D051B10FE06078FF280CD133
:103C8000A078FF2809D1E078FF285AD005E06078B5
:103C900018B9A07808B9E078E0B3DFB340F608407F
:103CA000012600EB451000F073FE40F608506178E5
:103CB00000EB451000F06CFE40F60860A17800EBC8
:103CC000451000F065FE40F60870E17800EB451005
:103CD00000F05EFE41F20800390A00EB451000F0EA
:103CE00057FE41F20810F9B200EB451000F050FE0B
:103CF0004FF4847000EB45100446042100F048FEA8
:103D0000204600F060FE0028FAD14FF4427000EB2C
:103D1000451400E015E0204600F055FE152811D0AE
:103D2000204600F050FE17280CD0284600F0CEFBAD
:103D30000007EED54FF4027000EB4510082100F0AB
:103D400027FE002630463EE74FF4847110B501EBA4
:103D500040100446082100F01BFE204600F033FE10
:103D60000028FAD110BD2DE9F041154688460746D6
:103D700000F03CFBA84203D2384600F037FB054672
:103D80004FF4427000EB4716384600F0B1FB044692
:103D9000304600F018FE172803D01C2801D000255B
:103DA00001E0AC42F0D32A464146384600F0EBFB36
:103DB0004FF4847000EB47100446202100F0E8FD2A
:103DC000204600F000FE0028FAD14FF4027000EB0C
:103DD0004714204600F0F7FDC0060ED4304600F030
:103DE000F2FD1728F5D01C28F3D083A008F0E4F9E1
:103DF0003846FFF7BDFE0020E5E62046102100F022
:103E0000C7FD2046102100F0C3FD2846DBE670B553
:103E1000044615004FF0000010D0204600F0E7FBEC
:103E20004FF4847000EB44100446402100F0B0FDD4
:103E3000204600F0C8FD0028FAD1284670BD2DE9C3
:103E4000F0411D46164688460446069F00F0CEFA0D
:103E5000B04203D2204600F0C9FA0646297829B9B3
:103E6000687818B9A87808B9E878E0B3DFB340F605
:103E7000084000EB441000F08BFD40F608506978D4
:103E800000EB441000F084FD40F60860A97800EBD8
:103E9000441000F07DFD40F60870E97800EB441016
:103EA00000F076FD41F20800390A00EB441000F002
:103EB0006FFD41F20810F9B200EB441000F068FD0C
:103EC00032464146204600F05EFB4FF4847000EB22
:103ED00044100546202100F05BFD284600F073FDEC
:103EE0000028FAD100E013E04FF4027000EB441414
:103EF000204600F068FDC00620460BD400F063FDAC
:103F00000007F5D52046182100F042FD00205AE6B2
:103F1000002602E0102100F03BFD304653E62DE97B
:103F2000FF4F83B00024DDF840A01D460646002A5E
:103F30006CD042F6080000EB4610814600F043FDCD
:103F4000074642F6081000EB4610804600F03BFDA5
:103F500000EB072087B2380200EB461000F1180B87
:103F6000082000EB461000F02EFD00F007000228AC
:103F700004D0032824D004285CD16CE008226946D0
:103F8000584600F064FD9DF8000028709DF801007F
:103F900068709DF80200A8709DF80300E8709DF815
:103FA0000400AAF800009DF80510083701EB002076
:103FB000AAF80000BFB29DF806009DF8071016E0B1
:103FC00006226946584600F042FD9DF80000287020
:103FD0009DF8010068709DF80200A8709DF803002C
:103FE000E870BF1D9DF804009DF80510BFB201EBFD
:103FF00000200CE0D201002053454E445F4F4B207F
:1040000050726F626C656D21210D0A001FE084B251
:10401000380200EB461022461830049900F017FDD4
:10402000381985B2290A484600F0B2FCE9B2404688
:1040300000F0AEFC4FF4847000EB461005464021C2
:1040400000F0A6FC284600F0BEFC0028FAD107B01C
:104050002046BDE8F08F02226946584600F0F7FC82
:104060009DF800009DF801106FF0010202EB0020A6
:104070000844BF1C84B240F2EA50BDB2844203D966
:1040800006A008F099F8FEE7280200EB4610224649
:104090001830049900F0DBFC2819C2E764617461F0
:1040A0005F6C656E206F76657220313531340D0A94
:1040B000000000004FF0E0210A6922F004020A61CA
:1040C000BA49C00800EB40020870C2EBC0104FF6BE
:1040D000FF7202EAC00048807047012005F0FDBC75
:1040E00010B5040004D0012005F0F7FC641EFAD1DD
:1040F00010BD7047A0F13001092901D8C8B270473E
:10410000A0F16101052901D8573804E0A0F141016F
:104110000529F4D83738C0B2704710B50C460346AD
:10412000002204E05B1CFFF7E5FF02FB04021878A5
:104130000028F7D190B210BD10B50C4602460023FE
:1041400004E0521CFFF7D6FF03FB0403107800289D
:10415000F7D1184610BD70B50546501E13460E46E1
:10416000C4B220221946304607F0BCFC5FF00A00BA
:10417000B5FBF0F100FB1151B5FBF0F530313155D5
:10418000641EE4B2002DF3D170BD70B516460D4625
:104190000400034613D0207888B106E0FFF7AAFF99
:1041A00000280CDBA8420ADA5B1C18780028F5D13D
:1041B000A9B22046FFF7B1FF3060012070BD00209A
:1041C00070BD10B5002303E08C4200D1C2545B1CCB
:1041D000C45C002CF8D110BD0106090C41EA102086
:1041E00070470106C0F3072241EA0241C0F30742CB
:1041F00041EA022141EA106070472DE9F0411D4675
:1042000016460C4607F080FC0746204607F09AFC4D
:10421000C4193146204607F077FC001B86B23246AF
:104220002146284607F082FC0020A855BDE8F08111
:1042300030B50D4689B00146684607F097FC6846E0
:1042400000245BA107F09CFC0178302902D1417861
:1042500078290AD05FF00A01FFF75FFF2855002098
:10426000641C042CEDDB09B030BD1021801CF3E789
:104270001CB5044620214F4807F03BFCE1B2C4F3D3
:104280000720CDE90001220EC4F307434AA14948A3
:1042900007F0A2FF47481CBD1CB504464548102145
:1042A000203007F026FCE1B2C4F30720CDE900017D
:1042B0004048220EC4F3074342A1203007F07CFFA0
:1042C0003C4820301CBD70B58EB00E466D46014690
:1042D000284607F04BFC002435A1284607F050FC87
:1042E000002811D00178302902D1417878290DD0E9
:1042F0000DAA0A21FFF749FF002805D00D98305577
:104300000D98FF2806D900200EB070BD10210DAA0F
:10431000801CEFE70025641C042CDDDB0120F3E7A3
:104320005AE75EE758E75CE7F0B50022C1F34F04B7
:1043300013464FF6FF760BE010F8135000EB4307DF
:1043400006EA05257F785B1C3D44ADB22A449BB24A
:10435000A342F1D3C90703D010F8130002EB0022E7
:1043600002EB1240C04380B2F0BD2DE9F1430024BE
:104370004FEA0D0504F5A060804600F024FB295D9E
:1043800000EA010704F5706000F01DFB0646404698
:1043900000F019FB0640B74202D00120BDE8F883C7
:1043A000641C042CE6DB0020F8E700009C010020E0
:1043B0002E000000D0A7002025642E25642E256441
:1043C0002E256400253033642E253033642E2530AD
:1043D00033642E25303364000146002000F0D8BA43
:1043E0008020F9E7BD4931F810007047BB4910390A
:1043F00031F81000704704220146900100F0FDBA28
:1044000004220146900100F022BB014604224FF431
:10441000A06000F0F2BA014606224FF4106000F0EE
:10442000ECBA014604224FF4706000F0E6BA01468F
:1044300004224FF4A06000F00ABB014606224FF4AC
:10444000106000F004BB014604224FF4706000F0DD
:10445000FEBA4FF4A85000F0B6BA10B50446010AEF
:104460004FF4C85000F094FAE1B2BDE810404FF4A8
:10447000D05000F08DBA01464FF4D85000F088BA01
:1044800010B50446FFF7E5FF60EA0400C1B2BDE8DD
:1044900010404FF4A85000F07BBA70B505460C46AA
:1044A00041F20820090A00EB451000F071FA41F2D0
:1044B0000830E1B200EB4510BDE8704000F068BA8A
:1044C00041F2086202EB401000F062BA4FF4027150
:1044D00001EB401000F077BA4FF4027202EB40108B
:1044E00000F056BA4FF4427101EB401000F06BBA85
:1044F0002DE9F04142F2080101EB401542F20811AA
:10450000002601EB4014284600F05DFA07462046DD
:1045100000F059FA00EB072007043F0C09D02846A9
:1045200000F051FA0646204600F04DFA00EB062056
:1045300086B2BE42E7D13046BDE8F0812DE9F041B8
:1045400042F2086101EB401542F20871002601EBCE
:104550004014284600F037FA0746204600F033FAA8
:1045600000EB072007043F0C09D0284600F02BFA87
:104570000646204600F027FA00EB062086B2BE422F
:10458000E7D13046D8E72DE9F0475FEA02088946CF
:10459000044626D042F2084000EB4416304600F0B4
:1045A00012FA074642F2085000EB4415284600F084
:1045B0000AFA00EB072087B2380200EB44104246AB
:1045C0004946103000F019FA07EB080084B2210ABE
:1045D000304600F0DDF9E1B22846BDE8F04700F0D2
:1045E000D7B92146BDE8F0473DA007F0E5BD2DE96C
:1045F000F0475FEA02088946044626D042F60800E2
:1046000000EB4416304600F0DEF9074642F608108B
:1046100000EB4415284600F0D6F900EB072087B2DE
:10462000380200EB441042464946183000F00FFAB9
:1046300007EB080084B2210A304600F0A9F9E1B284
:104640002846BDE8F04700F0A3B92146BDE8F04791
:104650002BA007F0B1BD2DE9F05F0026DFF87CA0AC
:10466000DFF878B088460746354634464FF6FF797E
:10467000AAF1100A41F60870395D00EB441000F011
:1046800087F941F6086018F8041000EB441000F0B8
:104690007FF900222AF814202BF814204FF48042CE
:1046A00050465946964205DC17F804C009EA8C23A7
:1046B00020F81430954205DC18F8043009EA83220A
:1046C00021F814203AF8140006443BF81400641C46
:1046D0000544082CCEDBBDE8F09F000010A80020A8
:1046E00043483A20256420556E657870656374658B
:1046F0006431206C656E67746820300D0A0000001C
:1047000043483A20256420556E657870656374656A
:104710006432206C656E67746820300D0A000000FA
:1047200010B5F14C00220421204605F02FFF0A208D
:10473000FFF7D3FC01220421204605F027FFBDE846
:1047400010404FF4C860FFF7C8BC7047704738B5D9
:10475000E74DE64CE8692060288CA080D5F802007F
:10476000C4F80600D5F80600C4F80A00D5F80A0017
:10477000C4F80E00D5F80E00C4F81200287810B95D
:10478000DCA007F019FD287802280CD1D7481C308E
:10479000017829B94178082902D18078DC283CD0F9
:1047A000DCA007F009FD0120A0760020E076CF48CC
:1047B0000A30FFF72AFECD480E30FFF71CFEA01D81
:1047C000FFF72FFECA48801CFFF73DFEC848801C3B
:1047D000C1780091837842780178DCA007F0ECFC86
:1047E000C348801DFFF723FEC148801DC17800919A
:1047F000837842780178DDA007F0DEFCBC480A30FF
:10480000FFF7FEFDBA480A30C178009183784278FC
:104810000178DEA007F0D0FC38BDE4A007F0CCFCA6
:10482000D4F82200C4F80600D4F82600C4F80A0020
:10483000D4F82A00C4F80E00B5E7AD49AB48CA6900
:104840000260098C8180FFF7E6BDF0B5DC4885B0D9
:10485000816941F480518161816901F48051049141
:10486000816941F004018161816901F004010491D1
:10487000816941F004018161816901F004010491C1
:10488000816941F004018161816901F004010491B1
:10489000816941F0040181618069022600F0040011
:1048A0000490A020CDE9000603208F4F03906946B5
:1048B000384605F0FFFC00244020CDE9000469469D
:1048C0003846029405F0F6FC01221021384605F026
:1048D0005DFE10200125CDE900056946384605F04A
:1048E000E9FCB848416821F0E06141F08061416035
:1048F0007E48B549303001604FF48271C0E901143F
:104900006902C0E90551C0E903460821C0E907145E
:1049100007214462C0E90A4100F083F90096694624
:104920003846CDE9014505F0C5FC01220421384691
:1049300005F02CFE0420CDE900056946384605F057
:10494000B9FC05B0F0BD684B30B1012806D1012299
:104950001021184605F01ABE0022F9E77047002022
:10496000F1E70120EFE70EB501238DF808006FF0A5
:104970007F4000905D4801AA02A9303000F0CDFAD6
:1049800010B1FF208DF804009DF804000EBDEAE789
:1049900070B504460D460020FFF7D5FFC4F307406D
:1049A000FFF7E1FFC4F30720FFF7DDFF04F0F80095
:1049B000001DC0B2FFF7D7FF2846FFF7D4FFBDE8C0
:1049C00070400120BFE710B504460020FFF7BBFF91
:1049D000C4F30740FFF7C7FFC4F30720FFF7C3FF87
:1049E00004F0F800FFF7BFFF0020FFF7D0FF0446F8
:1049F0000120FFF7A8FF204610BD2DE9F04115006A
:104A00000F4606464FF0000402D170A007F0D4FB19
:104A10000020FFF798FFC6F30740FFF7A4FFC6F397
:104A20000720FFF7A0FF06F0F800001DC0B2FFF757
:104A30009AFF04E0385DFFF796FF641CA4B2AC4215
:104A4000F8D30120FFF77FFF2846BDE8F0812DE96C
:104A5000F04115000F4606464FF0000402D15BA05E
:104A600007F0AAFB0020FFF76EFFC6F30740FFF731
:104A70007AFFC6F30720FFF776FF06F0F800FFF78E
:104A800072FF05E00020FFF782FF3855641CA4B2D6
:104A9000AC42F7D30120FFF756FF2846D5E710B503
:104AA000FCF78EFCBDE810404E4801F02CBB1048CE
:104AB0004169491C4161B1F57A7F07D30021416109
:104AC0008169491C81614178491C41707047EEE75A
:104AD000E5E7E4E710B544A007F06EFB002040686E
:104AE000BDE81040004700000008014020A8002059
:104AF000B001002020CAB9D3C3B6A8D2E5B5C449D5
:104B000050D0C5CFA2C5E4D6C357353530300D0AD5
:104B10000000000020454550524F4DCEB4C5E4D6AC
:104B2000C32CCAB9D3C3B6A8D2E5B5C44950D0C5C1
:104B3000CFA2C5E4D6C357353530302CB2A2D0B49D
:104B4000C8EB454550524F4D0D0A000020573535F2
:104B50003030204950B5D8D6B72020203A202564DF
:104B60002E25642E25642E25640D0A002057353528
:104B7000303020D7D3CDF8D1DAC2EB203A202564EB
:104B80002E25642E25642E25640D0A002057353508
:104B9000303020CDF8B9D820202020203A202564BC
:104BA0002E25642E25642E25640D0A0020495020F0
:104BB00066726F6D20454550524F4D0D0A00000042
:104BC000001002400000014000300140556E657841
:104BD00070656374656432206C656E67746820303C
:104BE0000D0A000090A7002020CFB5CDB3D6D8C6BF
:104BF000F4D6D0A1ADA1AD0D0A0000000648804753
:104C000006480047FEE7FEE7FEE7FEE7FEE7FEE7B1
:104C1000FEE7FEE7FEE7FEE7F5B900083101000810
:104C2000704770B5040005D00025A56294F85100C6
:104C300010B106E0012070BD84F850502046FBF70B
:104C4000B7FA022084F851002068016821F0400181
:104C50000160D4E901010843D4E903121143084378
:104C600061690843218B01F400710843E16908433D
:104C7000216A0843A16A084321680860A0690421E9
:104C800001EA1040216848602068C16921F4006190
:104C9000C1616565012084F85100002070BD704736
:104CA00010B5040011D0022084F85100206801687A
:104CB00021F0400101602046FBF7C9FA0020606541
:104CC00084F8510084F8500010BD012010BD2DE97A
:104CD000F0411D4617460E460446DDF8188008E0F0
:104CE000681C06D004F0E2FEA0EB0800A8420BD23C
:104CF00055B12068806836EA000030D00020B84204
:104D0000EED10020BDE8F0812068416821F0E0018B
:104D100041606068B0F5827F0BD1A068B0F5004FAC
:104D200002D0B0F5806F04D12068016821F0400105
:104D30000160A06AB0F5005F09D12068016821F424
:104D4000005101602068016841F4005101600120B8
:104D500084F85100002084F850000320D2E701209D
:104D6000CDE72DE9F84F044690F8500000271D4686
:104D70001646894601280DD04FF0010B84F850B03B
:104D800004F094FE804694F85100BA46012804D0FD
:104D900002278EE00220BDE8F88FB9F1000F6ED037
:104DA000002E6CD0032084F85100C4F854A0C4F83D
:104DB0003090A686E686C4F838A0A4F83CA0A4F8F3
:104DC0003EA0C4F844A0C4F840A0A068B0F5004FCD
:104DD00004D12068016841F48041016020680168C5
:104DE000490603D4016841F040010160E068B0F574
:104DF000006F606803D030B3012E24D041E008B1C9
:104E0000012E1CD1206B21680088C86006E0206854
:104E10008168890709D5216B0988C160206B801CD6
:104E20002063E08E401EE08609E004F03FFEA0EB28
:104E30000800A84202D3681C01D031E07DB3E08EA7
:104E40000028E4D120E0206B21680078087306E098
:104E500020688168890709D5216B09780173206B67
:104E6000401C2063E08E401EE0860AE004F01EFE37
:104E7000A0EB0800A84203D3681C02D010E017E0A2
:104E80006DB1E08E0028E3D142462946204601F06C
:104E90008AF808B120206065A06818B106E0FFE735
:104EA000032706E02068C16880680090606D00B14B
:104EB000012784F851B084F850A038466BE7F8B564
:104EC000044640684FF48273984217D1A0684FF4AB
:104ED0008065B0F5004F01D0A8420FD12068066868
:104EE00026F0400606606068984207D1A068A84294
:104EF00004D100920B460022012103E000920B46F0
:104F0000002280212046FFF7E2FE002804D0606DD9
:104F100040F0200060650320F8BD2DE9F84F0446FD
:104F200090F8500000270A9E1D4692468B464FF08F
:104F3000010901280ED0012084F8500004F0B6FDCC
:104F4000804694F85100616801280BD0B1F5827F4A
:104F500006D101E002201EE7A16809B9042801D0AA
:104F60000227C2E0BBF1000F27D0BAF1000F24D016
:104F70001DB394F85100042802D0052084F8510094
:104F800000206065C4F838A0E587A587C4F830B074
:104F9000E586A5862064606420680168490603D41C
:104FA000016841F040010160E068B0F5006F6068A1
:104FB00005D0E8B3012D46D07FE0012795E008B188
:104FC000012D39D1206B21680088C860206B801CBE
:104FD0002063E08E401EE0862EE02068816889070D
:104FE0000FD5E18E69B1B9F1010F0AD1216B0988A2
:104FF000C160206B801C2063E08E401EE0864FF075
:10500000000920688168C9070CD0E18F51B1C068E0
:10501000A16B0880A06B801CA063E08F401EE0871E
:105020004FF0010904F042FDA0EB0800B04200E09F
:1050300009E001D3701C50D1E08E0028CDD1E08F63
:105040000028CAD13FE0206B216800780873206BEC
:10505000401C2063E08E401EE0862EE020688168C0
:1050600089070FD5E18E69B1B9F1010F0AD1216B22
:1050700009780173206B401C2063E08E401EE0869F
:105080004FF0000920688168C9070CD0E18F51B149
:10509000C068A16B0870A06B401CA063E08F401E2D
:1050A000E0874FF0010904F001FDA0EB0800B042D9
:1050B00002D3701C01D010E07EB1E08E0028CDD16B
:1050C000E08F0028CAD142463146204600F06BFFEF
:1050D00028B101272020606507E0032705E0A068CC
:1050E00018B92068C16880680090012084F85100D8
:1050F000002084F8500038464DE62DE9F84F04466C
:1051000040680025984616460F464FF0040BB0F550
:10511000827F01D1A06888B194F85000012817D08F
:10512000012084F8500004F0C1FC814694F851003D
:105130004FF0000A01280DD002257CE084F851B020
:1051400013460A462046CDF80080FFF7E6FE22E629
:10515000022020E6002F6DD0002E6BD084F851B0D5
:10516000C4F854A0A763A687E687C4F830A0A4F8C3
:1051700034A0A4F836A0C4F840A0C4F844A0A068A5
:10518000B0F5004F04D12068016821F4804101602E
:1051900020680168490603D4016841F040010160BC
:1051A000E068D8B139E020688168C90709D0007B80
:1051B000A16B0870A06B401CA063E08F401EE087CD
:1051C0000CE004F073FCA0EB0901414503D3B8F1F6
:1051D000FF3F03D036E0B8F1000F33D0E08F002856
:1051E000E1D11DE020688168C90709D0C068A16BC2
:1051F0000880A06B801CA063E08F401EE0870CE05D
:1052000004F054FCA0EB0901414503D3B8F1FF3F82
:1052100003D017E0B8F1000F14D0E08F0028E1D1DF
:105220004A4641462046FFF74AFE08B12020606505
:10523000606D00B10125012084F8510084F850A070
:105240002846A8E50325F6E77047704738B50446B9
:10525000FC4845F6C0510068B0FBF1F064214843BA
:10526000009004F023FC024620680099A1B1491E79
:10527000009181688907F8D5416821F0A00141605B
:105280006421204600F08FFE18B1606D40F02000D0
:105290006065A06828B108E0616D41F0200161659A
:1052A000EAE72068C16880680090012084F8510016
:1052B000606D0028204602D0FFF7C7FF38BDFFF71A
:1052C000C3FF38BD016B026809781173016B491C7B
:1052D0000163C18E491EC186C18E002900D1B5E788
:1052E0007047016B02680988D160016B891C0163FA
:1052F000C18E491EC186C18E002900D1A6E7704724
:1053000030B590F850300024012B0BD0012380F8E9
:105310005030002341B13AB190F85150012D05D0E1
:1053200002242AE0022030BD012426E0032580F873
:105330005150436501638286C28683638387C38736
:105340000364C16809B1C04900E0C0494164816893
:10535000B1F5004F04D101680A6842F480420A6046
:1053600001684A6842F0A0024A6001680A68520671
:1053700003D40A6842F040020A6080F850302046A8
:1053800030BD704738B504460068416821F06001BF
:10539000416004F08BFB024664212046FFF78FFD3D
:1053A00018B1606D40F020006065A06818B92068F1
:1053B000C16880680090012084F85100606D002869
:1053C000204602D0FFF741FF38BDFFF7DAFF38BDB6
:1053D0000168097B826B1170816B491C8163C18FED
:1053E000491EC187C18F002900D1CBE770470168F2
:1053F000C968826B1180816B891C8163C18F491ED2
:10540000C187C18F002900D1BCE77047704738B50C
:1054100004468C4845F6C0510068B0FBF1F06421A9
:105420004843009004F042FB02462068416821F0A6
:1054300020014160009888B1401E0090206880687B
:105440008007F7D56421204600F0ADFD18B1606DEE
:1054500040F020006065A06828B108E0606D40F071
:1054600020006065EEE72068C16880680090616D8B
:10547000012029B184F851002046FFF7E6FE38BD2F
:1054800094F8511084F851000429204602D0FFF707
:10549000BDFF38BDFFF775FF38BD016B02680978A5
:1054A0001173016B491C0163C18E491EC186C18EF7
:1054B000002908D101684A6822F080024A60C18F41
:1054C000002900D1A3E770470168097B826B117046
:1054D000816B491C8163C18F491EC187C18F00291F
:1054E00008D101684A6822F060024A60C18E002932
:1054F00000D18CE77047016B02680988D160016BAD
:10550000891C0163C18E491EC186C18E002908D144
:1055100001684A6822F080024A60C18F002900D1E8
:1055200075E770470168C968826B1180816B891CBF
:105530008163C18F491EC187C18F002908D10168CD
:105540004A6822F040024A60C18E002900D15EE71D
:105550007047F0B590F850500024012D0CD0012573
:1055600080F8505090F8515000264768012D0BD01C
:10557000B7F5827F06D101E00220F0BD87680FB940
:10558000042D01D0022429E0A9B1A2B19BB190F869
:105590005150042D02D0052580F851504665016315
:1055A0008386C38682638387C387C16829B12849FC
:1055B0000164284904E0012410E0274901642749D7
:1055C000416401684A6842F0E0024A6001680A6882
:1055D000520603D40A6842F040020A6080F8506024
:1055E0002046F0BDF0B400248568134604261DB99A
:1055F0004268B2F5827F0DD090F85020012A0ED07B
:10560000012280F8502090F851700022012F09D01B
:10561000022440E080F85160F0BC0A4699E702207D
:10562000F0BC7047F1B1EBB180F851604265816325
:105630008387C38702638286C2864264C16899B148
:10564000074912E0E8010020E3520008C5520008B3
:1056500025550008F7540008C95400089B54000859
:10566000EF530008012416E0FE490164B5F5004F30
:1056700004D101680B6823F480430B6001684B6818
:1056800043F060034B6001680B685B0603D40B6852
:1056900043F040030B6080F850202046C0E710B56F
:1056A000406A01684A6822F003024A60416D41F095
:1056B00010014165012180F85110FFF7C6FD10BDB2
:1056C00038B50546446A04F0F1F9024628680068D6
:1056D000800623D42068416821F0200141602068C1
:1056E000416821F0020141606421204600F05BFC2A
:1056F00018B1606D40F020006065A068002118B905
:105700002068C26880680090E186012084F851001A
:10571000606D18B12046FFF798FD38BD2046FFF7B1
:1057200093FD38BD704710B5406AFFF7FBFF10BD11
:105730002DE9F041044690F850000026012809D0D8
:10574000012784F8507094F851000025012804D0F6
:10575000022649E00220BDE8F08189B182B1032030
:1057600084F8510065652163A286E286A5636564BD
:105770002564A587E587A068B0F5004F02D006E054
:10578000012631E02068016841F480410160A16C8C
:10579000B548C862A16CB5488862A16CB44808637A
:1057A000A06C4563E38E2268216B0C32A06C04F080
:1057B000D8FF38B1606D40F010006065012684F8B4
:1057C000517011E020680168490603D4016841F076
:1057D000400101602068416841F02001416020687B
:1057E000416841F00201416084F850503046B2E710
:1057F00070B50546446A04F059F902462868006805
:1058000080061BD42068416821F020014160206897
:10581000416821F00301416064212046FFF74FFBFE
:1058200008B1202060650020E087012084F8510045
:10583000606D18B12046FFF708FD70BD2046FFF7E8
:10584000A0FD70BD704710B5406AFFF7FBFF10BDAB
:1058500070B50546446A04F029F9024628680068D4
:1058600080061ED42068416821F020014160642137
:10587000204600F098FB18B1606D40F02000606594
:105880002068416821F0030141600020E086E08744
:10589000012084F85100606D18B12046FFF7D5FC57
:1058A00070BD2046FFF7B2FD70BD704710B5406A6D
:1058B000FFF7FBFF10BD2DE9F041044690F85000C2
:1058C000002601280DD0012784F8507094F851006B
:1058D0000025D4F804C001280ED0BCF5827F09D180
:1058E00001E0022037E7D4F808C0BCF1000F01D175
:1058F000042801D0022660E049B342B33BB394F8D8
:105900005100042802D0052084F851006565216308
:10591000A386E386A263A387E3872564656494F87E
:105920005100042815D0E16C5248C8625248E16C1D
:105930008862E16C4E480863E06C4563E38F216840
:10594000A26B0C31E06C04F00CFFE0B906E001261C
:1059500033E0E16C4948C8624948E8E7206841689B
:1059600041F001014160A06CC562A06C8562A06C31
:105970000563A06C4563E38E2268216B0C32A06C3A
:1059800004F0EFFE38B1606D40F010006065012654
:1059900084F8517011E020680168490603D4016859
:1059A00041F0400101602068416841F02001416000
:1059B0002068416841F00201416084F8505030464F
:1059C000C9E62DE9F041044600268068042318B991
:1059D0006568B5F5827F0ED094F85050012D12D035
:1059E000012784F8507094F851C00025BCF1010FD4
:1059F0000BD002265FE084F851302046BDE8F0412C
:105A000013460A4657E70220A5E671B16AB184F849
:105A100051306565A163A287E28725646564A58628
:105A2000E586B0F5004F02D006E0012643E020688D
:105A3000016821F480410160E16C1048C862E16CAA
:105A40000F488862E16C0A480863E06C4563E38FA5
:105A50002168A26B0C31E06C04F083FEC8B1606D6C
:105A600010E00000D153000827570008C156000875
:105A70009F560008AD5800085158000847580008C4
:105A8000F157000840F010006065012684F851705D
:105A900011E020680168490603D4016841F0400123
:105AA00001602068416841F0200141602068416840
:105AB00041F00101416084F8505030464BE6F7490F
:105AC00008B5096845F6C052B1FBF2F164225143B2
:105AD00000910168009A9AB1521E00928A6892075A
